{
	"_format": "hh-sol-artifact-1",
	"contractName": "HedManager",
	"sourceName": "contracts/HedManager.sol",
	"abi": [
		{
			"inputs": [],
			"stateMutability": "nonpayable",
			"type": "constructor"
		},
		{
			"inputs": [
				{
					"internalType": "uint256",
					"name": "_id",
					"type": "uint256"
				},
				{
					"internalType": "uint256",
					"name": "_userId",
					"type": "uint256"
				},
				{
					"internalType": "string",
					"name": "_categoryName",
					"type": "string"
				}
			],
			"name": "addSponsor",
			"outputs": [],
			"stateMutability": "payable",
			"type": "function"
		},
		{
			"inputs": [
				{
					"internalType": "string",
					"name": "_name",
					"type": "string"
				},
				{
					"internalType": "string",
					"name": "_bio",
					"type": "string"
				},
				{
					"internalType": "string",
					"name": "_country",
					"type": "string"
				},
				{
					"internalType": "string",
					"name": "_avatar",
					"type": "string"
				},
				{
					"internalType": "string",
					"name": "_twitter",
					"type": "string"
				},
				{
					"internalType": "string",
					"name": "_github",
					"type": "string"
				}
			],
			"name": "createExplorer",
			"outputs": [],
			"stateMutability": "nonpayable",
			"type": "function"
		},
		{
			"inputs": [
				{
					"internalType": "string",
					"name": "_image",
					"type": "string"
				},
				{
					"internalType": "string",
					"name": "_title",
					"type": "string"
				},
				{
					"internalType": "string",
					"name": "_github_link",
					"type": "string"
				},
				{
					"internalType": "string",
					"name": "_demo",
					"type": "string"
				},
				{
					"internalType": "string",
					"name": "_website",
					"type": "string"
				},
				{
					"internalType": "uint256",
					"name": "_target_amount",
					"type": "uint256"
				},
				{
					"internalType": "string",
					"name": "_description",
					"type": "string"
				},
				{
					"internalType": "uint256",
					"name": "_explorerId",
					"type": "uint256"
				},
				{
					"internalType": "string",
					"name": "_explorerName",
					"type": "string"
				}
			],
			"name": "createProject",
			"outputs": [],
			"stateMutability": "nonpayable",
			"type": "function"
		},
		{
			"inputs": [
				{
					"internalType": "uint256",
					"name": "",
					"type": "uint256"
				},
				{
					"internalType": "uint256",
					"name": "",
					"type": "uint256"
				}
			],
			"name": "doners",
			"outputs": [
				{
					"internalType": "uint256",
					"name": "id",
					"type": "uint256"
				},
				{
					"internalType": "address",
					"name": "_address",
					"type": "address"
				},
				{
					"internalType": "uint256",
					"name": "amount",
					"type": "uint256"
				}
			],
			"stateMutability": "view",
			"type": "function"
		},
		{
			"inputs": [
				{
					"internalType": "string",
					"name": "_category",
					"type": "string"
				}
			],
			"name": "getCategoryPrice",
			"outputs": [
				{
					"internalType": "uint256",
					"name": "",
					"type": "uint256"
				}
			],
			"stateMutability": "view",
			"type": "function"
		},
		{
			"inputs": [],
			"name": "getEthUsd",
			"outputs": [
				{
					"internalType": "uint256",
					"name": "",
					"type": "uint256"
				}
			],
			"stateMutability": "view",
			"type": "function"
		},
		{
			"inputs": [],
			"name": "getExplorers",
			"outputs": [
				{
					"components": [
						{
							"internalType": "uint256",
							"name": "id",
							"type": "uint256"
						},
						{
							"internalType": "address payable",
							"name": "owner",
							"type": "address"
						},
						{
							"internalType": "uint256",
							"name": "dateJoined",
							"type": "uint256"
						},
						{
							"internalType": "string",
							"name": "name",
							"type": "string"
						},
						{
							"internalType": "string",
							"name": "bio",
							"type": "string"
						},
						{
							"internalType": "string",
							"name": "country",
							"type": "string"
						},
						{
							"internalType": "string",
							"name": "avatar",
							"type": "string"
						},
						{
							"internalType": "string",
							"name": "twitter",
							"type": "string"
						},
						{
							"internalType": "string",
							"name": "github",
							"type": "string"
						},
						{
							"internalType": "uint256",
							"name": "amountReceived",
							"type": "uint256"
						}
					],
					"internalType": "struct HedManager.Explorer[]",
					"name": "",
					"type": "tuple[]"
				}
			],
			"stateMutability": "view",
			"type": "function"
		},
		{
			"inputs": [],
			"name": "getProjects",
			"outputs": [
				{
					"components": [
						{
							"internalType": "uint256",
							"name": "projectId",
							"type": "uint256"
						},
						{
							"internalType": "uint256",
							"name": "explorerId",
							"type": "uint256"
						},
						{
							"internalType": "address payable",
							"name": "owner",
							"type": "address"
						},
						{
							"internalType": "string",
							"name": "explorerName",
							"type": "string"
						},
						{
							"internalType": "string",
							"name": "image",
							"type": "string"
						},
						{
							"internalType": "string",
							"name": "title",
							"type": "string"
						},
						{
							"components": [
								{
									"internalType": "uint256",
									"name": "id",
									"type": "uint256"
								},
								{
									"internalType": "address",
									"name": "_address",
									"type": "address"
								},
								{
									"internalType": "uint256",
									"name": "amount",
									"type": "uint256"
								}
							],
							"internalType": "struct HedManager.Doners",
							"name": "doners",
							"type": "tuple"
						},
						{
							"internalType": "string",
							"name": "github_link",
							"type": "string"
						},
						{
							"internalType": "string",
							"name": "demo",
							"type": "string"
						},
						{
							"internalType": "string",
							"name": "website",
							"type": "string"
						},
						{
							"internalType": "uint256",
							"name": "target_amount",
							"type": "uint256"
						},
						{
							"internalType": "string",
							"name": "description",
							"type": "string"
						},
						{
							"internalType": "string",
							"name": "Category",
							"type": "string"
						},
						{
							"internalType": "uint256",
							"name": "amountReceived",
							"type": "uint256"
						}
					],
					"internalType": "struct HedManager.Project[]",
					"name": "",
					"type": "tuple[]"
				}
			],
			"stateMutability": "view",
			"type": "function"
		},
		{
			"inputs": [
				{
					"internalType": "address",
					"name": "",
					"type": "address"
				}
			],
			"name": "isRegistered",
			"outputs": [
				{
					"internalType": "bool",
					"name": "",
					"type": "bool"
				}
			],
			"stateMutability": "view",
			"type": "function"
		},
		{
			"inputs": [],
			"name": "isRegisteredFunc",
			"outputs": [
				{
					"internalType": "bool",
					"name": "",
					"type": "bool"
				}
			],
			"stateMutability": "view",
			"type": "function"
		}
	],
	"bytecode": "0x608060405234801561001057600080fd5b50600080546001600160a01b03191673d0d5e3db44de05e9f294bb0a3beeaf030de24ada179055612033806100466000396000f3fe6080604052600436106100915760003560e01c8063bb27e0ce11610059578063bb27e0ce14610196578063bb99046e146101b9578063c3c5a547146101d9578063dcc6012814610209578063ed4883f21461022b57600080fd5b80634869f63114610096578063568fefbf146100cc578063720f15981461013f578063822beb6b14610161578063baf3151b14610176575b600080fd5b3480156100a257600080fd5b503360009081526007602052604090205460ff165b60405190151581526020015b60405180910390f35b3480156100d857600080fd5b5061011c6100e7366004611812565b600860209081526000928352604080842090915290825290208054600182015460029092015490916001600160a01b03169083565b604080519384526001600160a01b039092166020840152908201526060016100c3565b34801561014b57600080fd5b5061015461024b565b6040516100c39190611890565b61017461016f366004611a60565b61071d565b005b34801561018257600080fd5b50610174610191366004611ab0565b610ab0565b3480156101a257600080fd5b506101ab610d4f565b6040519081526020016100c3565b3480156101c557600080fd5b506101746101d4366004611bdf565b610de1565b3480156101e557600080fd5b506100b76101f4366004611cd4565b60076020526000908152604090205460ff1681565b34801561021557600080fd5b5061021e610ff0565b6040516100c39190611cfd565b34801561023757600080fd5b506101ab610246366004611e9b565b6115ca565b6060600061025860015490565b905060008167ffffffffffffffff811115610275576102756119bd565b60405190808252806020026020018201604052801561030557816020015b6102f26040518061014001604052806000815260200160006001600160a01b0316815260200160008152602001606081526020016060815260200160608152602001606081526020016060815260200160608152602001600081525090565b8152602001906001900390816102935790505b50905060005b82811015610716576000610320826001611eee565b6000818152600460209081526040918290208251610140810184528154815260018201546001600160a01b03169281019290925260028101549282019290925260038201805493945091929091839160608401919061037e90611f06565b80601f01602080910402602001604051908101604052809291908181526020018280546103aa90611f06565b80156103f75780601f106103cc576101008083540402835291602001916103f7565b820191906000526020600020905b8154815290600101906020018083116103da57829003601f168201915b5050505050815260200160048201805461041090611f06565b80601f016020809104026020016040519081016040528092919081815260200182805461043c90611f06565b80156104895780601f1061045e57610100808354040283529160200191610489565b820191906000526020600020905b81548152906001019060200180831161046c57829003601f168201915b505050505081526020016005820180546104a290611f06565b80601f01602080910402602001604051908101604052809291908181526020018280546104ce90611f06565b801561051b5780601f106104f05761010080835404028352916020019161051b565b820191906000526020600020905b8154815290600101906020018083116104fe57829003601f168201915b5050505050815260200160068201805461053490611f06565b80601f016020809104026020016040519081016040528092919081815260200182805461056090611f06565b80156105ad5780601f10610582576101008083540402835291602001916105ad565b820191906000526020600020905b81548152906001019060200180831161059057829003601f168201915b505050505081526020016007820180546105c690611f06565b80601f01602080910402602001604051908101604052809291908181526020018280546105f290611f06565b801561063f5780601f106106145761010080835404028352916020019161063f565b820191906000526020600020905b81548152906001019060200180831161062257829003601f168201915b5050505050815260200160088201805461065890611f06565b80601f016020809104026020016040519081016040528092919081815260200182805461068490611f06565b80156106d15780601f106106a6576101008083540402835291602001916106d1565b820191906000526020600020905b8154815290600101906020018083116106b457829003601f168201915b505050505081526020016009820154815250508484815181106106f6576106f6611f41565b60200260200101819052505050808061070e90611f57565b91505061030b565b5092915050565b60008311801561072f57506003548311155b61073857600080fd5b6000838152600560209081526040808320858452600490925291829020915190919061078490349060069061076e908790611f72565b90815260405190819003602001902054906115f2565b6006846040516107949190611f72565b9081526040519081900360200181209190915560028301546001600160a01b03169081903480156108fc02916000818181858888f193505050501580156107df573d6000803e3d6000fd5b50600f8301546107ef90346115f2565b600f840155600982015461080390346115f2565b60098301556000868152600560205260409020835481556001808501549082015560028085015490820180546001600160a01b0319166001600160a01b03909216919091179055600380850180548693928301919061086190611f06565b61086c92919061165f565b50600482018160040190805461088190611f06565b61088c92919061165f565b5060058201816005019080546108a190611f06565b6108ac92919061165f565b506006828101549082015560078083015490820180546001600160a01b0319166001600160a01b039092169190911790556008808301549082015560098083018054918301916108fb90611f06565b61090692919061165f565b50600a820181600a0190805461091b90611f06565b61092692919061165f565b50600b820181600b0190805461093b90611f06565b61094692919061165f565b50600c82015481600c0155600d820181600d0190805461096590611f06565b61097092919061165f565b50600e820181600e0190805461098590611f06565b61099092919061165f565b50600f9182015491015560008581526004602052604090208254815560018084015490820180546001600160a01b0319166001600160a01b039092169190911790556002808401549082015560038084018054859392830191906109f390611f06565b6109fe92919061165f565b506004820181600401908054610a1390611f06565b610a1e92919061165f565b506005820181600501908054610a3390611f06565b610a3e92919061165f565b506006820181600601908054610a5390611f06565b610a5e92919061165f565b506007820181600701908054610a7390611f06565b610a7e92919061165f565b506008820181600801908054610a9390611f06565b610a9e92919061165f565b50600991820154910155505050505050565b610abe600380546001019055565b600060056000610acd60035490565b81526020019081526020016000209050610ae660035490565b8155600181018390558151610b0490600383019060208501906116e6565b508951610b1a90600483019060208d01906116e6565b508851610b3090600583019060208c01906116e6565b508751610b4690600983019060208b01906116e6565b508651610b5c90600a83019060208a01906116e6565b508551610b7290600b83019060208901906116e6565b50600c81018590558351610b8f90600d83019060208701906116e6565b506002810180546001600160a01b031916331790558060056000610bb260035490565b81526020810191909152604001600020815481556001808301549082015560028083015490820180546001600160a01b0319166001600160a01b039092169190911790556003808301805491830191610c0a90611f06565b610c1592919061165f565b506004820181600401908054610c2a90611f06565b610c3592919061165f565b506005820181600501908054610c4a90611f06565b610c5592919061165f565b506006828101549082015560078083015490820180546001600160a01b0319166001600160a01b03909216919091179055600880830154908201556009808301805491830191610ca490611f06565b610caf92919061165f565b50600a820181600a01908054610cc490611f06565b610ccf92919061165f565b50600b820181600b01908054610ce490611f06565b610cef92919061165f565b50600c82015481600c0155600d820181600d01908054610d0e90611f06565b610d1992919061165f565b50600e820181600e01908054610d2e90611f06565b610d3992919061165f565b50600f9182015491015550505050505050505050565b6000805460408051633fabe5a360e21b8152905183926001600160a01b03169163feaf968c9160048083019260a0929190829003018186803b158015610d9457600080fd5b505afa158015610da8573d6000803e3d6000fd5b505050506040513d601f19601f82011682018060405250810190610dcc9190611fad565b505050915050610ddb81611605565b91505090565b610def600180546001019055565b600060046000610dfe60015490565b81526020019081526020016000209050610e1760015490565b81556001810180546001600160a01b031916331790554260028201558651610e4890600383019060208a01906116e6565b508551610e5e90600483019060208901906116e6565b508451610e7490600583019060208801906116e6565b508351610e8a90600683019060208701906116e6565b508251610ea090600783019060208601906116e6565b508151610eb690600883019060208501906116e6565b50336000908152600760205260408120805460ff19166001908117909155548291600491815260208101919091526040016000208154815560018083015490820180546001600160a01b0319166001600160a01b03909216919091179055600280830154908201556003808301805491830191610f3290611f06565b610f3d92919061165f565b506004820181600401908054610f5290611f06565b610f5d92919061165f565b506005820181600501908054610f7290611f06565b610f7d92919061165f565b506006820181600601908054610f9290611f06565b610f9d92919061165f565b506007820181600701908054610fb290611f06565b610fbd92919061165f565b506008820181600801908054610fd290611f06565b610fdd92919061165f565b5060099182015491015550505050505050565b60606000610ffd60035490565b905060008167ffffffffffffffff81111561101a5761101a6119bd565b60405190808252806020026020018201604052801561105357816020015b61104061175a565b8152602001906001900390816110385790505b50905060005b8281101561071657600061106e826001611eee565b60008181526005602090815260409182902082516101c0810184528154815260018201549281019290925260028101546001600160a01b0316928201929092526003820180549394509192909183916060840191906110cc90611f06565b80601f01602080910402602001604051908101604052809291908181526020018280546110f890611f06565b80156111455780601f1061111a57610100808354040283529160200191611145565b820191906000526020600020905b81548152906001019060200180831161112857829003601f168201915b5050505050815260200160048201805461115e90611f06565b80601f016020809104026020016040519081016040528092919081815260200182805461118a90611f06565b80156111d75780601f106111ac576101008083540402835291602001916111d7565b820191906000526020600020905b8154815290600101906020018083116111ba57829003601f168201915b505050505081526020016005820180546111f090611f06565b80601f016020809104026020016040519081016040528092919081815260200182805461121c90611f06565b80156112695780601f1061123e57610100808354040283529160200191611269565b820191906000526020600020905b81548152906001019060200180831161124c57829003601f168201915b5050509183525050604080516060810182526006840154815260078401546001600160a01b03166020828101919091526008850154828401528301526009830180549190920191906112ba90611f06565b80601f01602080910402602001604051908101604052809291908181526020018280546112e690611f06565b80156113335780601f1061130857610100808354040283529160200191611333565b820191906000526020600020905b81548152906001019060200180831161131657829003601f168201915b50505050508152602001600a8201805461134c90611f06565b80601f016020809104026020016040519081016040528092919081815260200182805461137890611f06565b80156113c55780601f1061139a576101008083540402835291602001916113c5565b820191906000526020600020905b8154815290600101906020018083116113a857829003601f168201915b50505050508152602001600b820180546113de90611f06565b80601f016020809104026020016040519081016040528092919081815260200182805461140a90611f06565b80156114575780601f1061142c57610100808354040283529160200191611457565b820191906000526020600020905b81548152906001019060200180831161143a57829003601f168201915b50505050508152602001600c8201548152602001600d8201805461147a90611f06565b80601f01602080910402602001604051908101604052809291908181526020018280546114a690611f06565b80156114f35780601f106114c8576101008083540402835291602001916114f3565b820191906000526020600020905b8154815290600101906020018083116114d657829003601f168201915b50505050508152602001600e8201805461150c90611f06565b80601f016020809104026020016040519081016040528092919081815260200182805461153890611f06565b80156115855780601f1061155a57610100808354040283529160200191611585565b820191906000526020600020905b81548152906001019060200180831161156857829003601f168201915b50505050508152602001600f820154815250508484815181106115aa576115aa611f41565b6020026020010181905250505080806115c290611f57565b915050611059565b60006006826040516115dc9190611f72565b9081526020016040518091039020549050919050565b60006115fe8284611eee565b9392505050565b60008082121561165b5760405162461bcd60e51b815260206004820181905260248201527f53616665436173743a2076616c7565206d75737420626520706f736974697665604482015260640160405180910390fd5b5090565b82805461166b90611f06565b90600052602060002090601f01602090048101928261168d57600085556116da565b82601f1061169e57805485556116da565b828001600101855582156116da57600052602060002091601f016020900482015b828111156116da5782548255916001019190600101906116bf565b5061165b9291506117fd565b8280546116f290611f06565b90600052602060002090601f01602090048101928261171457600085556116da565b82601f1061172d57805160ff19168380011785556116da565b828001600101855582156116da579182015b828111156116da57825182559160200191906001019061173f565b604051806101c00160405280600081526020016000815260200160006001600160a01b031681526020016060815260200160608152602001606081526020016117c660405180606001604052806000815260200160006001600160a01b03168152602001600081525090565b8152602001606081526020016060815260200160608152602001600081526020016060815260200160608152602001600081525090565b5b8082111561165b57600081556001016117fe565b6000806040838503121561182557600080fd5b50508035926020909101359150565b60005b8381101561184f578181015183820152602001611837565b8381111561185e576000848401525b50505050565b6000815180845261187c816020860160208601611834565b601f01601f19169290920160200192915050565b60006020808301818452808551808352604092508286019150828160051b87010184880160005b838110156119af57888303603f19018552815180518452878101516001600160a01b0381168986015261014090508782015188860152606080830151828288015261190483880182611864565b925050506080808301518683038288015261191f8382611864565b9250505060a0808301518683038288015261193a8382611864565b9250505060c080830151868303828801526119558382611864565b9250505060e080830151868303828801526119708382611864565b92505050610100808301518683038288015261198c8382611864565b6101209485015197909401969096525050948701949250908601906001016118b7565b509098975050505050505050565b634e487b7160e01b600052604160045260246000fd5b600082601f8301126119e457600080fd5b813567ffffffffffffffff808211156119ff576119ff6119bd565b604051601f8301601f19908116603f01168101908282118183101715611a2757611a276119bd565b81604052838152866020858801011115611a4057600080fd5b836020870160208301376000602085830101528094505050505092915050565b600080600060608486031215611a7557600080fd5b8335925060208401359150604084013567ffffffffffffffff811115611a9a57600080fd5b611aa6868287016119d3565b9150509250925092565b60008060008060008060008060006101208a8c031215611acf57600080fd5b893567ffffffffffffffff80821115611ae757600080fd5b611af38d838e016119d3565b9a5060208c0135915080821115611b0957600080fd5b611b158d838e016119d3565b995060408c0135915080821115611b2b57600080fd5b611b378d838e016119d3565b985060608c0135915080821115611b4d57600080fd5b611b598d838e016119d3565b975060808c0135915080821115611b6f57600080fd5b611b7b8d838e016119d3565b965060a08c0135955060c08c0135915080821115611b9857600080fd5b611ba48d838e016119d3565b945060e08c013593506101008c0135915080821115611bc257600080fd5b50611bcf8c828d016119d3565b9150509295985092959850929598565b60008060008060008060c08789031215611bf857600080fd5b863567ffffffffffffffff80821115611c1057600080fd5b611c1c8a838b016119d3565b97506020890135915080821115611c3257600080fd5b611c3e8a838b016119d3565b96506040890135915080821115611c5457600080fd5b611c608a838b016119d3565b95506060890135915080821115611c7657600080fd5b611c828a838b016119d3565b94506080890135915080821115611c9857600080fd5b611ca48a838b016119d3565b935060a0890135915080821115611cba57600080fd5b50611cc789828a016119d3565b9150509295509295509295565b600060208284031215611ce657600080fd5b81356001600160a01b03811681146115fe57600080fd5b60006020808301818452808551808352604092508286019150828160051b87010184880160005b838110156119af57888303603f190185528151805184528781015188850152868101516001600160a01b0381168886015261020090506060808301518282880152611d7183880182611864565b9250505060808083015186830382880152611d8c8382611864565b9250505060a08083015186830382880152611da78382611864565b9250505060c080830151611dda82880182805182526020808201516001600160a01b031690830152604090810151910152565b505060e082015161012086830381880152611df58383611864565b9250610100840151915061014087840381890152611e138484611864565b9350818501519250610160915087840382890152611e318484611864565b93508085015192505061018082818901528185015192506101a0915087840382890152611e5e8484611864565b9350808501519250508683036101c0880152611e7a8383611864565b9301516101e096909601959095525094870194925090860190600101611d24565b600060208284031215611ead57600080fd5b813567ffffffffffffffff811115611ec457600080fd5b611ed0848285016119d3565b949350505050565b634e487b7160e01b600052601160045260246000fd5b60008219821115611f0157611f01611ed8565b500190565b600181811c90821680611f1a57607f821691505b60208210811415611f3b57634e487b7160e01b600052602260045260246000fd5b50919050565b634e487b7160e01b600052603260045260246000fd5b6000600019821415611f6b57611f6b611ed8565b5060010190565b60008251611f84818460208701611834565b9190910192915050565b805169ffffffffffffffffffff81168114611fa857600080fd5b919050565b600080600080600060a08688031215611fc557600080fd5b611fce86611f8e565b9450602086015193506040860151925060608601519150611ff160808701611f8e565b9050929550929590935056fea2646970667358221220510b754a1360ce892b85e13074356109d821fb8bbc7ea77b7f9c5cbd1bf95e1764736f6c63430008090033",
	"linkReferences": {},
	"deployedLinkReferences": {}
}